:020000040000FA
:020000003E2898
:040002000034003492
:080008000528831203138C127A
:100010001A08A000031131302002031D1528831295
:100020000313061459303720090003113030200221
:10003000031D0900831203130610533037200900F3
:10004000831603138601FF3087001930990026308C
:100050009800831203139030980083120313080052
:10006000831603130C128C16C0308B0008000C1E74
:1000700037280C1283120313990008002020302027
:02008000402816
:00000001FF
