:020000040000FA
:1000000001288316031386018701831203138601D7
:1000100087010530A0000930A1000E281B20112007
:100020000E28A1032108FF3C031917200800A00394
:100030000930A10008000714871420082C2086002E
:100040008714071037200714871421082C208600F6
:10005000071487103720080082073F3406345B34CA
:100060004F3466346D347D3407347F346F34FF3061
:10007000A200FF30A3000230A400A20B3D28A30B76
:080080003D28A40B3D280800F7
:04008800003400340C
:00000001FF
