:020000040000FA
:100000009C288316031386018312031386010612AC
:1000100002302920283029200130292010302920C1
:10002000063029200D30292008008312031386167C
:100030001B2086120800C830A000A00B1D28080055
:100040000F30A0002830A900A00B2428A90B2428D9
:100050000800A100210E0F39A2000608F039220481
:100060008600152021080F39A2000608F039220465
:10007000860015200800A408031940284220080023
:100080004E2008002308A200A50AFF30A3004E203E
:10009000A40B44282208A3004E200800A30803193B
:1000A0000800A303A50A0A302502031D4E28A50156
:1000B000A60A0A302602031D4E28A601A70A0A3006
:1000C0002702031D4E28A701A80A0A302802031D93
:1000D0004E2808008207303431343234333434341B
:1000E0003534363437343834393483160313FF301B
:1000F00085008312031389309F0083160313803019
:100100009F008312031320200800831203131F157E
:100110001F198828831203131E08A40083160313D3
:100120001E08A30083120313080083120313A50102
:10013000A601A701A8010800012075202020202089
:1001400001209520852006163B2028086A202920BA
:1001500027086A20292026086A20292025086A20E5
:0601600029209E28080082
:04016600003400342D
:00000001FF
