:020000040000FA
:100000006C288316031386018312031386010612DC
:1000100002302020283020200130202010302020E5
:10002000063020200D30202008008312031386168E
:100030001B2086120800C830A000A00B1D28080055
:10004000A100210E0F39A2000608F0392204860013
:10005000152021080F39A2000608F0392204860075
:1000600015200800A8080319372839200800452062
:1000700008002708A200A30AFF30A7004520A80B0C
:100080003B282208A70045200800A70803190800FC
:10009000A703A30A0A302302031D4528A301A40ACB
:1000A0000A302402031D4528A401A50A0A302502AE
:1000B000031D4528A501A60A0A302602031D45286E
:1000C0000800820730343134323433343434353438
:1000D0003634373438343934012006160330A8005A
:1000E000FF30A7003220260861202020250861204B
:1000F00020202408612020202308612020207F2840
:040100000034003493
:00000001FF
