:020000040000FA
:020000002928AD
:040002000034003492
:0800080005280B1106308100F0
:10001000A20B0900FA30A2000F2018200900A10A43
:1000200021080A3C031915200800A00AA1010800B4
:1000300007148714200843208600871407104E20D9
:1000400007148714210843208600071487104E20C8
:1000500008008316031386018701831203138601A8
:10006000FF3087000030A0000030A100831603138A
:1000700002308100831203138B178B160630810028
:10008000FA30A2005B2882073F3406345B344F34D9
:1000900066346D347D3407347F346F34FF30A30011
:1000A000FF30A4000130A500A30B5428A40B542852
:0800B000A50B542808005B2891
:00000001FF
